:100000006F00E02500000000D2000000D2000000D8
:1000100000000000000000000000000000000000E0
:1000200000000000000000000000000000000000D0
:10003000D200000000000000D2000000000000001C
:10004000D2000000D2000000D2000000D200000068
:10005000D2000000D2000000D2000000D200000058
:10006000D2000000D2000000D2000000D200000048
:10007000D2000000D2000000D2000000D200000038
:10008000D2000000D2000000D2000000D200000028
:0C009000D2000000D2000000D2000000EE
:10009C00B75700409387074003D7470113770708EA
:1000AC0065DF2398A7008280B757004093870740ED
:1000BC0003D74701118B6DDF03D7070013670720A8
:1000CC002390E700828001A0B75700409387074038
:1000DC0003D78701098B6DFF03D707001367071040
:1000EC002390E700B75700409387074003D7470199
:1000FC00058B6DDF130780072398E700B756004088
:10010C0037078200938606400D0783D7460103D636
:10011C008601C207D18FF98FE399E7FE82805111D6
:10012C0006C422C22A844D3701459D371365040B42
:10013C0085370145B13F4145A13F1244A2403101F1
:10014C00A5B7B7170140938707809843411106C69E
:10015C001377F7F022C426C21367070198C3094727
:10016C0098CBB7170240984F37062000B7160140BE
:10017C001367170198CFD84F0144518FD8CF9C42A9
:10018C007D773D07F98F0567130707DDD98F9CC273
:10019C001147B75700402392E74061772907239E08
:1001AC00E74005472390E74005370145D5359304D3
:1001BC00002EB387840003C507000504D13DE94731
:1001CC00E319F4FED5350145993FFD3D13050004B7
:1001DC00C135130400207D144204054541804D3D7A
:1001EC007DF8B7040020C935938404001375F40F0F
:1001FC003D37D93D13050004613D814713F7770066
:10020C002697034507003EC0613582471307000857
:10021C008507E395E7FE493D05049147E318F4FC97
:10022C00B7F700E09C47B7E61600938606363717FB
:10023C000140B697B7F500E01307078090451D8E77
:10024C00E35EC0FE9C455047B6971346260050C748
:10025C00F5B79307E014970100209381E1591381BE
:10026C00010013058008731005308D45739045808F
:10027C0017050000130545D84D8D7310553073903C
:10028C001734B70700201307C02F938707009386F6
:10029C00818063E7D702938781801387818063E62F
:1002AC00E702B717024013070007D8C3954637F784
:1002BC0000E014C3984F1367470398CF73002030A6
:1002CC001043110790C39107E9B723A007009107CA
:1002DC00F9B70000AED580A81FD300408D142000C4
:1002EC00A1C8DA02818FD9F1DB40A4A62EAF0000A1
:0802FC000E1F3F7E7E3D190E2E
:00000001FF
